{"abi":[{"type":"constructor","inputs":[{"name":"_pntContract","type":"address","internalType":"address"},{"name":"initialOwner","type":"address","internalType":"address"}],"stateMutability":"nonpayable"},{"type":"function","name":"PNT_CONTRACT","inputs":[],"outputs":[{"name":"","type":"address","internalType":"address"}],"stateMutability":"view"},{"type":"function","name":"createSale","inputs":[{"name":"_tokenId","type":"uint256","internalType":"uint256"},{"name":"_currency","type":"address","internalType":"address"},{"name":"_price","type":"uint256","internalType":"uint256"},{"name":"_maxPoints","type":"uint256","internalType":"uint256"},{"name":"_minPoints","type":"uint256","internalType":"uint256"},{"name":"_startTime","type":"uint256","internalType":"uint256"},{"name":"_endTime","type":"uint256","internalType":"uint256"},{"name":"_beneficiary","type":"address","internalType":"address payable"}],"outputs":[{"name":"","type":"address","internalType":"address"}],"stateMutability":"nonpayable"},{"type":"function","name":"deployedSales","inputs":[{"name":"","type":"uint256","internalType":"uint256"}],"outputs":[{"name":"","type":"address","internalType":"address"}],"stateMutability":"view"},{"type":"function","name":"owner","inputs":[],"outputs":[{"name":"","type":"address","internalType":"address"}],"stateMutability":"view"},{"type":"function","name":"renounceOwnership","inputs":[],"outputs":[],"stateMutability":"nonpayable"},{"type":"function","name":"transferOwnership","inputs":[{"name":"newOwner","type":"address","internalType":"address"}],"outputs":[],"stateMutability":"nonpayable"},{"type":"event","name":"OwnershipTransferred","inputs":[{"name":"previousOwner","type":"address","indexed":true,"internalType":"address"},{"name":"newOwner","type":"address","indexed":true,"internalType":"address"}],"anonymous":false},{"type":"event","name":"SaleCreated","inputs":[{"name":"saleAddress","type":"address","indexed":true,"internalType":"address"},{"name":"beneficiary","type":"address","indexed":true,"internalType":"address"},{"name":"tokenId","type":"uint256","indexed":true,"internalType":"uint256"}],"anonymous":false},{"type":"error","name":"OwnableInvalidOwner","inputs":[{"name":"owner","type":"address","internalType":"address"}]},{"type":"error","name":"OwnableUnauthorizedAccount","inputs":[{"name":"account","type":"address","internalType":"address"}]}],"bytecode":{"object":"0x60a060405234801561000f575f80fd5b506040516130013803806130018339818101604052810190610031919061020c565b805f73ffffffffffffffffffffffffffffffffffffffff168173ffffffffffffffffffffffffffffffffffffffff16036100a2575f6040517f1e4fbdf70000000000000000000000000000000000000000000000000000000081526004016100999190610259565b60405180910390fd5b6100b1816100ed60201b60201c565b508173ffffffffffffffffffffffffffffffffffffffff1660808173ffffffffffffffffffffffffffffffffffffffff16815250505050610272565b5f805f9054906101000a900473ffffffffffffffffffffffffffffffffffffffff169050815f806101000a81548173ffffffffffffffffffffffffffffffffffffffff021916908373ffffffffffffffffffffffffffffffffffffffff1602179055508173ffffffffffffffffffffffffffffffffffffffff168173ffffffffffffffffffffffffffffffffffffffff167f8be0079c531659141344cd1fd0a4f28419497f9722a3daafe3b4186f6b6457e060405160405180910390a35050565b5f80fd5b5f73ffffffffffffffffffffffffffffffffffffffff82169050919050565b5f6101db826101b2565b9050919050565b6101eb816101d1565b81146101f5575f80fd5b50565b5f81519050610206816101e2565b92915050565b5f8060408385031215610222576102216101ae565b5b5f61022f858286016101f8565b9250506020610240858286016101f8565b9150509250929050565b610253816101d1565b82525050565b5f60208201905061026c5f83018461024a565b92915050565b608051612d706102915f395f818161018001526102da0152612d705ff3fe608060405234801561000f575f80fd5b5060043610610060575f3560e01c80632ddccf9514610064578063715018a6146100945780638bdf06661461009e5780638da5cb5b146100ce578063bba1de07146100ec578063f2fde38b1461010a575b5f80fd5b61007e60048036038101906100799190610513565b610126565b60405161008b919061057d565b60405180910390f35b61009c610161565b005b6100b860048036038101906100b391906105fb565b610174565b6040516100c5919061057d565b60405180910390f35b6100d66102b1565b6040516100e3919061057d565b60405180910390f35b6100f46102d8565b604051610101919061057d565b60405180910390f35b610124600480360381019061011f91906106ac565b6102fc565b005b60018181548110610135575f80fd5b905f5260205f20015f915054906101000a900473ffffffffffffffffffffffffffffffffffffffff1681565b610169610380565b6101725f610407565b565b5f61017d610380565b5f7f00000000000000000000000000000000000000000000000000000000000000008a8a8a8a8a8a8a8a6040516101b3906104cf565b6101c5999897969594939291906106f5565b604051809103905ff0801580156101de573d5f803e3d5ffd5b5090505f819050600181908060018154018082558091505060019003905f5260205f20015f9091909190916101000a81548173ffffffffffffffffffffffffffffffffffffffff021916908373ffffffffffffffffffffffffffffffffffffffff1602179055508a8473ffffffffffffffffffffffffffffffffffffffff168273ffffffffffffffffffffffffffffffffffffffff167f8294dcb82cb28ee7939947f52bb7f0575c1e628af3ef979eb88f8c355bfc9f5460405160405180910390a4809250505098975050505050505050565b5f805f9054906101000a900473ffffffffffffffffffffffffffffffffffffffff16905090565b7f000000000000000000000000000000000000000000000000000000000000000081565b610304610380565b5f73ffffffffffffffffffffffffffffffffffffffff168173ffffffffffffffffffffffffffffffffffffffff1603610374575f6040517f1e4fbdf700000000000000000000000000000000000000000000000000000000815260040161036b919061057d565b60405180910390fd5b61037d81610407565b50565b6103886104c8565b73ffffffffffffffffffffffffffffffffffffffff166103a66102b1565b73ffffffffffffffffffffffffffffffffffffffff1614610405576103c96104c8565b6040517f118cdaa70000000000000000000000000000000000000000000000000000000081526004016103fc919061057d565b60405180910390fd5b565b5f805f9054906101000a900473ffffffffffffffffffffffffffffffffffffffff169050815f806101000a81548173ffffffffffffffffffffffffffffffffffffffff021916908373ffffffffffffffffffffffffffffffffffffffff1602179055508173ffffffffffffffffffffffffffffffffffffffff168173ffffffffffffffffffffffffffffffffffffffff167f8be0079c531659141344cd1fd0a4f28419497f9722a3daafe3b4186f6b6457e060405160405180910390a35050565b5f33905090565b6125ba8061078183390190565b5f80fd5b5f819050919050565b6104f2816104e0565b81146104fc575f80fd5b50565b5f8135905061050d816104e9565b92915050565b5f60208284031215610528576105276104dc565b5b5f610535848285016104ff565b91505092915050565b5f73ffffffffffffffffffffffffffffffffffffffff82169050919050565b5f6105678261053e565b9050919050565b6105778161055d565b82525050565b5f6020820190506105905f83018461056e565b92915050565b61059f8161055d565b81146105a9575f80fd5b50565b5f813590506105ba81610596565b92915050565b5f6105ca8261053e565b9050919050565b6105da816105c0565b81146105e4575f80fd5b50565b5f813590506105f5816105d1565b92915050565b5f805f805f805f80610100898b031215610618576106176104dc565b5b5f6106258b828c016104ff565b98505060206106368b828c016105ac565b97505060406106478b828c016104ff565b96505060606106588b828c016104ff565b95505060806106698b828c016104ff565b94505060a061067a8b828c016104ff565b93505060c061068b8b828c016104ff565b92505060e061069c8b828c016105e7565b9150509295985092959890939650565b5f602082840312156106c1576106c06104dc565b5b5f6106ce848285016105ac565b91505092915050565b6106e0816104e0565b82525050565b6106ef816105c0565b82525050565b5f610120820190506107095f83018c61056e565b610716602083018b6106d7565b610723604083018a61056e565b61073060608301896106d7565b61073d60808301886106d7565b61074a60a08301876106d7565b61075760c08301866106d7565b61076460e08301856106d7565b6107726101008301846106e6565b9a995050505050505050505056fe6101a0604052348015610010575f80fd5b506040516125ba3803806125ba8339818101604052810190610032919061030e565b5f8611610074576040517f08c379a000000000000000000000000000000000000000000000000000000000815260040161006b9061042c565b60405180910390fd5b5f85116100b6576040517f08c379a00000000000000000000000000000000000000000000000000000000081526004016100ad90610494565b60405180910390fd5b428310156100f9576040517f08c379a00000000000000000000000000000000000000000000000000000000081526004016100f0906104fc565b60405180910390fd5b82821161013b576040517f08c379a00000000000000000000000000000000000000000000000000000000081526004016101329061058a565b60405180910390fd5b8873ffffffffffffffffffffffffffffffffffffffff1660808173ffffffffffffffffffffffffffffffffffffffff16815250508760a081815250508673ffffffffffffffffffffffffffffffffffffffff1660c08173ffffffffffffffffffffffffffffffffffffffff16815250508560e081815250508461010081815250508361012081815250508261014081815250508161016081815250508073ffffffffffffffffffffffffffffffffffffffff166101808173ffffffffffffffffffffffffffffffffffffffff16815250505f805f6101000a81548160ff0219169083600481111561022f5761022e6105a8565b5b02179055505050505050505050506105d5565b5f80fd5b5f73ffffffffffffffffffffffffffffffffffffffff82169050919050565b5f61026f82610246565b9050919050565b61027f81610265565b8114610289575f80fd5b50565b5f8151905061029a81610276565b92915050565b5f819050919050565b6102b2816102a0565b81146102bc575f80fd5b50565b5f815190506102cd816102a9565b92915050565b5f6102dd82610246565b9050919050565b6102ed816102d3565b81146102f7575f80fd5b50565b5f81519050610308816102e4565b92915050565b5f805f805f805f805f6101208a8c03121561032c5761032b610242565b5b5f6103398c828d0161028c565b995050602061034a8c828d016102bf565b985050604061035b8c828d0161028c565b975050606061036c8c828d016102bf565b965050608061037d8c828d016102bf565b95505060a061038e8c828d016102bf565b94505060c061039f8c828d016102bf565b93505060e06103b08c828d016102bf565b9250506101006103c28c828d016102fa565b9150509295985092959850929598565b5f82825260208201905092915050565b7f5072696365206d757374206265203e20300000000000000000000000000000005f82015250565b5f6104166011836103d2565b9150610421826103e2565b602082019050919050565b5f6020820190508181035f8301526104438161040a565b9050919050565b7f4d617820706f696e7473206d757374206265203e2030000000000000000000005f82015250565b5f61047e6016836103d2565b91506104898261044a565b602082019050919050565b5f6020820190508181035f8301526104ab81610472565b9050919050565b7f53746172742074696d65206d75737420626520696e20746865206675747572655f82015250565b5f6104e66020836103d2565b91506104f1826104b2565b602082019050919050565b5f6020820190508181035f830152610513816104da565b9050919050565b7f456e642074696d65206d7573742062652061667465722073746172742074696d5f8201527f6500000000000000000000000000000000000000000000000000000000000000602082015250565b5f6105746021836103d2565b915061057f8261051a565b604082019050919050565b5f6020820190508181035f8301526105a181610568565b9050919050565b7f4e487b71000000000000000000000000000000000000000000000000000000005f52602160045260245ffd5b60805160a05160c05160e0516101005161012051610140516101605161018051611f106106aa5f395f81816103d30152818161046a0152818161059601526105fe01525f81816103af015281816106f00152610e9801525f81816106930152610d9701525f818161066f01526107ff01525f81816106cc0152610f3d01525f8181610c3301528181610d320152610fae01525f81816104f9015281816105b801528181610c660152818161104d01526110fd01525f8181610a3b0152610d0e01525f81816109fd0152610d5c0152611f105ff3fe608060405234801561000f575f80fd5b506004361061012a575f3560e01c8063590e1ae3116100ab578063bba1de071161006f578063bba1de07146102c4578063bc197c81146102e2578063efef39a114610312578063f23a6e611461032e578063f53612191461035e5761012a565b8063590e1ae314610242578063603f4d521461024c57806389a890021461026a5780638d859f3e14610288578063ac79629a146102a65761012a565b806344dbb571116100f257806344dbb571146101c25780634819f871146101e0578063490efd6e146102105780634bb278f31461022e5780634e71d92d146102385761012a565b806301ffc9a71461012e57806320a0045a1461015e5780632f99c6cc1461017c5780633ccfd60b1461019a578063448e0b83146101a4575b5f80fd5b61014860048036038101906101439190611318565b61037c565b604051610155919061135d565b60405180910390f35b6101666103ad565b604051610173919061138e565b60405180910390f35b6101846103d1565b60405161019191906113e6565b60405180910390f35b6101a26103f5565b005b6101ac61066d565b6040516101b9919061138e565b60405180910390f35b6101ca610691565b6040516101d7919061138e565b60405180910390f35b6101fa60048036038101906101f5919061143a565b6106b5565b604051610207919061138e565b60405180910390f35b6102186106ca565b604051610225919061138e565b60405180910390f35b6102366106ee565b005b6102406108c3565b005b61024a610af8565b005b610254610cfc565b60405161026191906114d8565b60405180910390f35b610272610d0c565b60405161027f919061138e565b60405180910390f35b610290610d30565b60405161029d919061138e565b60405180910390f35b6102ae610d54565b6040516102bb919061138e565b60405180910390f35b6102cc610d5a565b6040516102d9919061154c565b60405180910390f35b6102fc60048036038101906102f7919061161b565b610d7e565b6040516103099190611701565b60405180910390f35b61032c60048036038101906103279190611744565b610d95565b005b6103486004803603810190610343919061176f565b6110e6565b6040516103559190611701565b60405180910390f35b6103666110fb565b6040516103739190611825565b60405180910390f35b5f634e2312e060e01b827bffffffffffffffffffffffffffffffffffffffffffffffffffffffff1916149050919050565b7f000000000000000000000000000000000000000000000000000000000000000081565b7f000000000000000000000000000000000000000000000000000000000000000081565b6002600481111561040957610408611465565b5b5f8054906101000a900460ff16600481111561042857610427611465565b5b14610468576040517f08c379a000000000000000000000000000000000000000000000000000000000815260040161045f90611898565b60405180910390fd5b7f000000000000000000000000000000000000000000000000000000000000000073ffffffffffffffffffffffffffffffffffffffff163373ffffffffffffffffffffffffffffffffffffffff16146104f6576040517f08c379a00000000000000000000000000000000000000000000000000000000081526004016104ed90611900565b60405180910390fd5b5f7f000000000000000000000000000000000000000000000000000000000000000073ffffffffffffffffffffffffffffffffffffffff166370a08231306040518263ffffffff1660e01b8152600401610550919061192d565b602060405180830381865afa15801561056b573d5f803e3d5ffd5b505050506040513d601f19601f8201168201806040525081019061058f919061195a565b90506105fc7f0000000000000000000000000000000000000000000000000000000000000000827f000000000000000000000000000000000000000000000000000000000000000073ffffffffffffffffffffffffffffffffffffffff1661111f9092919063ffffffff16565b7f000000000000000000000000000000000000000000000000000000000000000073ffffffffffffffffffffffffffffffffffffffff167f7084f5476618d8e60b11ef0d7d3f06914655adb8793e28ff7f018d4c76d505d582604051610662919061138e565b60405180910390a250565b7f000000000000000000000000000000000000000000000000000000000000000081565b7f000000000000000000000000000000000000000000000000000000000000000081565b6002602052805f5260405f205f915090505481565b7f000000000000000000000000000000000000000000000000000000000000000081565b7f00000000000000000000000000000000000000000000000000000000000000004211610750576040517f08c379a0000000000000000000000000000000000000000000000000000000008152600401610747906119cf565b60405180910390fd5b6001600481111561076457610763611465565b5b5f8054906101000a900460ff16600481111561078357610782611465565b5b14806107be57505f600481111561079d5761079c611465565b5b5f8054906101000a900460ff1660048111156107bc576107bb611465565b5b145b6107fd576040517f08c379a00000000000000000000000000000000000000000000000000000000081526004016107f490611a37565b60405180910390fd5b7f0000000000000000000000000000000000000000000000000000000000000000600154106108545760025f806101000a81548160ff0219169083600481111561084a57610849611465565b5b021790555061087e565b60035f806101000a81548160ff0219169083600481111561087857610877611465565b5b02179055505b7fe4c7ed2774fa299f356229771518fbb7f9e2729daab98474e212d17dd0e1be0f5f8054906101000a900460ff166040516108b991906114d8565b60405180910390a1565b600260048111156108d7576108d6611465565b5b5f8054906101000a900460ff1660048111156108f6576108f5611465565b5b14610936576040517f08c379a000000000000000000000000000000000000000000000000000000000815260040161092d90611898565b60405180910390fd5b5f60025f3373ffffffffffffffffffffffffffffffffffffffff1673ffffffffffffffffffffffffffffffffffffffff1681526020019081526020015f205490505f81116109b9576040517f08c379a00000000000000000000000000000000000000000000000000000000081526004016109b090611a9f565b60405180910390fd5b5f60025f3373ffffffffffffffffffffffffffffffffffffffff1673ffffffffffffffffffffffffffffffffffffffff1681526020019081526020015f20819055507f000000000000000000000000000000000000000000000000000000000000000073ffffffffffffffffffffffffffffffffffffffff1663f242432a30337f0000000000000000000000000000000000000000000000000000000000000000856040518563ffffffff1660e01b8152600401610a7a9493929190611af0565b5f604051808303815f87803b158015610a91575f80fd5b505af1158015610aa3573d5f803e3d5ffd5b505050503373ffffffffffffffffffffffffffffffffffffffff167fba953728785de35be3827ee7a7a7867a8472947562602939440e6c0bdbf4725e82604051610aed919061138e565b60405180910390a250565b60036004811115610b0c57610b0b611465565b5b5f8054906101000a900460ff166004811115610b2b57610b2a611465565b5b14610b6b576040517f08c379a0000000000000000000000000000000000000000000000000000000008152600401610b6290611b90565b60405180910390fd5b5f60025f3373ffffffffffffffffffffffffffffffffffffffff1673ffffffffffffffffffffffffffffffffffffffff1681526020019081526020015f205490505f8111610bee576040517f08c379a0000000000000000000000000000000000000000000000000000000008152600401610be590611bf8565b60405180910390fd5b5f60025f3373ffffffffffffffffffffffffffffffffffffffff1673ffffffffffffffffffffffffffffffffffffffff1681526020019081526020015f20819055505f7f000000000000000000000000000000000000000000000000000000000000000082610c5d9190611c43565b9050610caa33827f000000000000000000000000000000000000000000000000000000000000000073ffffffffffffffffffffffffffffffffffffffff1661111f9092919063ffffffff16565b3373ffffffffffffffffffffffffffffffffffffffff167fd7dee2702d63ad89917b6a4da9981c90c4d24f8c2bdfd64c604ecae57d8d065182604051610cf0919061138e565b60405180910390a25050565b5f8054906101000a900460ff1681565b7f000000000000000000000000000000000000000000000000000000000000000081565b7f000000000000000000000000000000000000000000000000000000000000000081565b60015481565b7f000000000000000000000000000000000000000000000000000000000000000081565b5f63bc197c8160e01b905098975050505050505050565b7f00000000000000000000000000000000000000000000000000000000000000004210158015610df457505f6004811115610dd357610dd2611465565b5b5f8054906101000a900460ff166004811115610df257610df1611465565b5b145b15610e235760015f806101000a81548160ff02191690836004811115610e1d57610e1c611465565b5b02179055505b60016004811115610e3757610e36611465565b5b5f8054906101000a900460ff166004811115610e5657610e55611465565b5b14610e96576040517f08c379a0000000000000000000000000000000000000000000000000000000008152600401610e8d90611cce565b60405180910390fd5b7f0000000000000000000000000000000000000000000000000000000000000000421115610ef9576040517f08c379a0000000000000000000000000000000000000000000000000000000008152600401610ef090611d36565b60405180910390fd5b5f8111610f3b576040517f08c379a0000000000000000000000000000000000000000000000000000000008152600401610f3290611d9e565b60405180910390fd5b7f000000000000000000000000000000000000000000000000000000000000000081600154610f6a9190611dbc565b1115610fab576040517f08c379a0000000000000000000000000000000000000000000000000000000008152600401610fa290611e39565b60405180910390fd5b5f7f000000000000000000000000000000000000000000000000000000000000000082610fd89190611c43565b90508160015f828254610feb9190611dbc565b925050819055508160025f3373ffffffffffffffffffffffffffffffffffffffff1673ffffffffffffffffffffffffffffffffffffffff1681526020019081526020015f205f82825461103e9190611dbc565b925050819055506110923330837f000000000000000000000000000000000000000000000000000000000000000073ffffffffffffffffffffffffffffffffffffffff1661119e909392919063ffffffff16565b3373ffffffffffffffffffffffffffffffffffffffff167fce6b1046e930fade6762318ce64737ca5e0c856242872b6c56d9dc5180fd12c483836040516110da929190611e57565b60405180910390a25050565b5f63f23a6e6160e01b90509695505050505050565b7f000000000000000000000000000000000000000000000000000000000000000081565b611199838473ffffffffffffffffffffffffffffffffffffffff1663a9059cbb8585604051602401611152929190611e7e565b604051602081830303815290604052915060e01b6020820180517bffffffffffffffffffffffffffffffffffffffffffffffffffffffff8381831617835250505050611220565b505050565b61121a848573ffffffffffffffffffffffffffffffffffffffff166323b872dd8686866040516024016111d393929190611ea5565b604051602081830303815290604052915060e01b6020820180517bffffffffffffffffffffffffffffffffffffffffffffffffffffffff8381831617835250505050611220565b50505050565b5f8060205f8451602086015f885af18061123f576040513d5f823e3d81fd5b3d92505f519150505f8214611258576001811415611273565b5f8473ffffffffffffffffffffffffffffffffffffffff163b145b156112b557836040517f5274afe70000000000000000000000000000000000000000000000000000000081526004016112ac919061192d565b60405180910390fd5b50505050565b5f80fd5b5f80fd5b5f7fffffffff0000000000000000000000000000000000000000000000000000000082169050919050565b6112f7816112c3565b8114611301575f80fd5b50565b5f81359050611312816112ee565b92915050565b5f6020828403121561132d5761132c6112bb565b5b5f61133a84828501611304565b91505092915050565b5f8115159050919050565b61135781611343565b82525050565b5f6020820190506113705f83018461134e565b92915050565b5f819050919050565b61138881611376565b82525050565b5f6020820190506113a15f83018461137f565b92915050565b5f73ffffffffffffffffffffffffffffffffffffffff82169050919050565b5f6113d0826113a7565b9050919050565b6113e0816113c6565b82525050565b5f6020820190506113f95f8301846113d7565b92915050565b5f611409826113a7565b9050919050565b611419816113ff565b8114611423575f80fd5b50565b5f8135905061143481611410565b92915050565b5f6020828403121561144f5761144e6112bb565b5b5f61145c84828501611426565b91505092915050565b7f4e487b71000000000000000000000000000000000000000000000000000000005f52602160045260245ffd5b600581106114a3576114a2611465565b5b50565b5f8190506114b382611492565b919050565b5f6114c2826114a6565b9050919050565b6114d2816114b8565b82525050565b5f6020820190506114eb5f8301846114c9565b92915050565b5f819050919050565b5f61151461150f61150a846113a7565b6114f1565b6113a7565b9050919050565b5f611525826114fa565b9050919050565b5f6115368261151b565b9050919050565b6115468161152c565b82525050565b5f60208201905061155f5f83018461153d565b92915050565b5f80fd5b5f80fd5b5f80fd5b5f8083601f84011261158657611585611565565b5b8235905067ffffffffffffffff8111156115a3576115a2611569565b5b6020830191508360208202830111156115bf576115be61156d565b5b9250929050565b5f8083601f8401126115db576115da611565565b5b8235905067ffffffffffffffff8111156115f8576115f7611569565b5b6020830191508360018202830111156116145761161361156d565b5b9250929050565b5f805f805f805f8060a0898b031215611637576116366112bb565b5b5f6116448b828c01611426565b98505060206116558b828c01611426565b975050604089013567ffffffffffffffff811115611676576116756112bf565b5b6116828b828c01611571565b9650965050606089013567ffffffffffffffff8111156116a5576116a46112bf565b5b6116b18b828c01611571565b9450945050608089013567ffffffffffffffff8111156116d4576116d36112bf565b5b6116e08b828c016115c6565b92509250509295985092959890939650565b6116fb816112c3565b82525050565b5f6020820190506117145f8301846116f2565b92915050565b61172381611376565b811461172d575f80fd5b50565b5f8135905061173e8161171a565b92915050565b5f60208284031215611759576117586112bb565b5b5f61176684828501611730565b91505092915050565b5f805f805f8060a08789031215611789576117886112bb565b5b5f61179689828a01611426565b96505060206117a789828a01611426565b95505060406117b889828a01611730565b94505060606117c989828a01611730565b935050608087013567ffffffffffffffff8111156117ea576117e96112bf565b5b6117f689828a016115c6565b92509250509295509295509295565b5f61180f8261151b565b9050919050565b61181f81611805565b82525050565b5f6020820190506118385f830184611816565b92915050565b5f82825260208201905092915050565b7f53616c6520776173206e6f74207375636365737366756c0000000000000000005f82015250565b5f61188260178361183e565b915061188d8261184e565b602082019050919050565b5f6020820190508181035f8301526118af81611876565b9050919050565b7f4f6e6c792062656e65666963696172792063616e2077697468647261770000005f82015250565b5f6118ea601d8361183e565b91506118f5826118b6565b602082019050919050565b5f6020820190508181035f830152611917816118de565b9050919050565b611927816113ff565b82525050565b5f6020820190506119405f83018461191e565b92915050565b5f815190506119548161171a565b92915050565b5f6020828403121561196f5761196e6112bb565b5b5f61197c84828501611946565b91505092915050565b7f53616c6520686173206e6f7420656e64656420796574000000000000000000005f82015250565b5f6119b960168361183e565b91506119c482611985565b602082019050919050565b5f6020820190508181035f8301526119e6816119ad565b9050919050565b7f53616c6520616c72656164792066696e616c697a6564000000000000000000005f82015250565b5f611a2160168361183e565b9150611a2c826119ed565b602082019050919050565b5f6020820190508181035f830152611a4e81611a15565b9050919050565b7f4e6f20706f696e747320746f20636c61696d00000000000000000000000000005f82015250565b5f611a8960128361183e565b9150611a9482611a55565b602082019050919050565b5f6020820190508181035f830152611ab681611a7d565b9050919050565b5f82825260208201905092915050565b50565b5f611adb5f83611abd565b9150611ae682611acd565b5f82019050919050565b5f60a082019050611b035f83018761191e565b611b10602083018661191e565b611b1d604083018561137f565b611b2a606083018461137f565b8181036080830152611b3b81611ad0565b905095945050505050565b7f53616c6520776173206e6f74206661696c6564000000000000000000000000005f82015250565b5f611b7a60138361183e565b9150611b8582611b46565b602082019050919050565b5f6020820190508181035f830152611ba781611b6e565b9050919050565b7f4e6f20706f696e747320746f20726566756e64000000000000000000000000005f82015250565b5f611be260138361183e565b9150611bed82611bae565b602082019050919050565b5f6020820190508181035f830152611c0f81611bd6565b9050919050565b7f4e487b71000000000000000000000000000000000000000000000000000000005f52601160045260245ffd5b5f611c4d82611376565b9150611c5883611376565b9250828202611c6681611376565b91508282048414831517611c7d57611c7c611c16565b5b5092915050565b7f53616c65206973206e6f742061637469766500000000000000000000000000005f82015250565b5f611cb860128361183e565b9150611cc382611c84565b602082019050919050565b5f6020820190508181035f830152611ce581611cac565b9050919050565b7f53616c652068617320656e6465640000000000000000000000000000000000005f82015250565b5f611d20600e8361183e565b9150611d2b82611cec565b602082019050919050565b5f6020820190508181035f830152611d4d81611d14565b9050919050565b7f416d6f756e74206d757374206265203e203000000000000000000000000000005f82015250565b5f611d8860128361183e565b9150611d9382611d54565b602082019050919050565b5f6020820190508181035f830152611db581611d7c565b9050919050565b5f611dc682611376565b9150611dd183611376565b9250828201905080821115611de957611de8611c16565b5b92915050565b7f4e6f7420656e6f75676820706f696e7473206c656674000000000000000000005f82015250565b5f611e2360168361183e565b9150611e2e82611def565b602082019050919050565b5f6020820190508181035f830152611e5081611e17565b9050919050565b5f604082019050611e6a5f83018561137f565b611e77602083018461137f565b9392505050565b5f604082019050611e915f83018561191e565b611e9e602083018461137f565b9392505050565b5f606082019050611eb85f83018661191e565b611ec5602083018561191e565b611ed2604083018461137f565b94935050505056fea26469706673582212202de4094a41ce4ef00a2f247ef6efd3f6f63d7c9ea5e2865cd126a5d415af9c0b64736f6c634300081a0033a26469706673582212209280f75fca15a786de4b7885ec26ed5f6aec4a446ee0c5801b4e2010e6eb5eac64736f6c634300081a0033","linkReferences":{}},"methodIdentifiers":{"PNT_CONTRACT()":"bba1de07","createSale(uint256,address,uint256,uint256,uint256,uint256,uint256,address)":"8bdf0666","deployedSales(uint256)":"2ddccf95","owner()":"8da5cb5b","renounceOwnership()":"715018a6","transferOwnership(address)":"f2fde38b"},"id":45}