{"abi":[{"type":"constructor","inputs":[{"name":"baseURI","type":"string","internalType":"string"},{"name":"initialOwner","type":"address","internalType":"address"}],"stateMutability":"nonpayable"},{"type":"function","name":"balanceOf","inputs":[{"name":"account","type":"address","internalType":"address"},{"name":"id","type":"uint256","internalType":"uint256"}],"outputs":[{"name":"","type":"uint256","internalType":"uint256"}],"stateMutability":"view"},{"type":"function","name":"balanceOfBatch","inputs":[{"name":"accounts","type":"address[]","internalType":"address[]"},{"name":"ids","type":"uint256[]","internalType":"uint256[]"}],"outputs":[{"name":"","type":"uint256[]","internalType":"uint256[]"}],"stateMutability":"view"},{"type":"function","name":"create","inputs":[{"name":"creator","type":"address","internalType":"address"},{"name":"initialSupply","type":"uint256","internalType":"uint256"}],"outputs":[{"name":"","type":"uint256","internalType":"uint256"}],"stateMutability":"nonpayable"},{"type":"function","name":"isApprovedForAll","inputs":[{"name":"account","type":"address","internalType":"address"},{"name":"operator","type":"address","internalType":"address"}],"outputs":[{"name":"","type":"bool","internalType":"bool"}],"stateMutability":"view"},{"type":"function","name":"nextTokenId","inputs":[],"outputs":[{"name":"","type":"uint256","internalType":"uint256"}],"stateMutability":"view"},{"type":"function","name":"owner","inputs":[],"outputs":[{"name":"","type":"address","internalType":"address"}],"stateMutability":"view"},{"type":"function","name":"renounceOwnership","inputs":[],"outputs":[],"stateMutability":"nonpayable"},{"type":"function","name":"safeBatchTransferFrom","inputs":[{"name":"from","type":"address","internalType":"address"},{"name":"to","type":"address","internalType":"address"},{"name":"ids","type":"uint256[]","internalType":"uint256[]"},{"name":"values","type":"uint256[]","internalType":"uint256[]"},{"name":"data","type":"bytes","internalType":"bytes"}],"outputs":[],"stateMutability":"nonpayable"},{"type":"function","name":"safeTransferFrom","inputs":[{"name":"from","type":"address","internalType":"address"},{"name":"to","type":"address","internalType":"address"},{"name":"id","type":"uint256","internalType":"uint256"},{"name":"value","type":"uint256","internalType":"uint256"},{"name":"data","type":"bytes","internalType":"bytes"}],"outputs":[],"stateMutability":"nonpayable"},{"type":"function","name":"setApprovalForAll","inputs":[{"name":"operator","type":"address","internalType":"address"},{"name":"approved","type":"bool","internalType":"bool"}],"outputs":[],"stateMutability":"nonpayable"},{"type":"function","name":"setURI","inputs":[{"name":"newURI","type":"string","internalType":"string"}],"outputs":[],"stateMutability":"nonpayable"},{"type":"function","name":"supportsInterface","inputs":[{"name":"interfaceId","type":"bytes4","internalType":"bytes4"}],"outputs":[{"name":"","type":"bool","internalType":"bool"}],"stateMutability":"view"},{"type":"function","name":"tokenCreator","inputs":[{"name":"","type":"uint256","internalType":"uint256"}],"outputs":[{"name":"","type":"address","internalType":"address"}],"stateMutability":"view"},{"type":"function","name":"transferOwnership","inputs":[{"name":"newOwner","type":"address","internalType":"address"}],"outputs":[],"stateMutability":"nonpayable"},{"type":"function","name":"uri","inputs":[{"name":"tokenId","type":"uint256","internalType":"uint256"}],"outputs":[{"name":"","type":"string","internalType":"string"}],"stateMutability":"view"},{"type":"event","name":"ApprovalForAll","inputs":[{"name":"account","type":"address","indexed":true,"internalType":"address"},{"name":"operator","type":"address","indexed":true,"internalType":"address"},{"name":"approved","type":"bool","indexed":false,"internalType":"bool"}],"anonymous":false},{"type":"event","name":"OwnershipTransferred","inputs":[{"name":"previousOwner","type":"address","indexed":true,"internalType":"address"},{"name":"newOwner","type":"address","indexed":true,"internalType":"address"}],"anonymous":false},{"type":"event","name":"TransferBatch","inputs":[{"name":"operator","type":"address","indexed":true,"internalType":"address"},{"name":"from","type":"address","indexed":true,"internalType":"address"},{"name":"to","type":"address","indexed":true,"internalType":"address"},{"name":"ids","type":"uint256[]","indexed":false,"internalType":"uint256[]"},{"name":"values","type":"uint256[]","indexed":false,"internalType":"uint256[]"}],"anonymous":false},{"type":"event","name":"TransferSingle","inputs":[{"name":"operator","type":"address","indexed":true,"internalType":"address"},{"name":"from","type":"address","indexed":true,"internalType":"address"},{"name":"to","type":"address","indexed":true,"internalType":"address"},{"name":"id","type":"uint256","indexed":false,"internalType":"uint256"},{"name":"value","type":"uint256","indexed":false,"internalType":"uint256"}],"anonymous":false},{"type":"event","name":"URI","inputs":[{"name":"value","type":"string","indexed":false,"internalType":"string"},{"name":"id","type":"uint256","indexed":true,"internalType":"uint256"}],"anonymous":false},{"type":"error","name":"ERC1155InsufficientBalance","inputs":[{"name":"sender","type":"address","internalType":"address"},{"name":"balance","type":"uint256","internalType":"uint256"},{"name":"needed","type":"uint256","internalType":"uint256"},{"name":"tokenId","type":"uint256","internalType":"uint256"}]},{"type":"error","name":"ERC1155InvalidApprover","inputs":[{"name":"approver","type":"address","internalType":"address"}]},{"type":"error","name":"ERC1155InvalidArrayLength","inputs":[{"name":"idsLength","type":"uint256","internalType":"uint256"},{"name":"valuesLength","type":"uint256","internalType":"uint256"}]},{"type":"error","name":"ERC1155InvalidOperator","inputs":[{"name":"operator","type":"address","internalType":"address"}]},{"type":"error","name":"ERC1155InvalidReceiver","inputs":[{"name":"receiver","type":"address","internalType":"address"}]},{"type":"error","name":"ERC1155InvalidSender","inputs":[{"name":"sender","type":"address","internalType":"address"}]},{"type":"error","name":"ERC1155MissingApprovalForAll","inputs":[{"name":"operator","type":"address","internalType":"address"},{"name":"owner","type":"address","internalType":"address"}]},{"type":"error","name":"OwnableInvalidOwner","inputs":[{"name":"owner","type":"address","internalType":"address"}]},{"type":"error","name":"OwnableUnauthorizedAccount","inputs":[{"name":"account","type":"address","internalType":"address"}]}],"bytecode":{"object":"0x608060405234801561000f575f80fd5b50604051612d87380380612d8783398181016040528101906100319190610347565b8082610042816100ca60201b60201c565b505f73ffffffffffffffffffffffffffffffffffffffff168173ffffffffffffffffffffffffffffffffffffffff16036100b3575f6040517f1e4fbdf70000000000000000000000000000000000000000000000000000000081526004016100aa91906103b0565b60405180910390fd5b6100c2816100dd60201b60201c565b5050506106a5565b80600290816100d991906105d6565b5050565b5f60035f9054906101000a900473ffffffffffffffffffffffffffffffffffffffff1690508160035f6101000a81548173ffffffffffffffffffffffffffffffffffffffff021916908373ffffffffffffffffffffffffffffffffffffffff1602179055508173ffffffffffffffffffffffffffffffffffffffff168173ffffffffffffffffffffffffffffffffffffffff167f8be0079c531659141344cd1fd0a4f28419497f9722a3daafe3b4186f6b6457e060405160405180910390a35050565b5f604051905090565b5f80fd5b5f80fd5b5f80fd5b5f80fd5b5f601f19601f8301169050919050565b7f4e487b71000000000000000000000000000000000000000000000000000000005f52604160045260245ffd5b6101ff826101b9565b810181811067ffffffffffffffff8211171561021e5761021d6101c9565b5b80604052505050565b5f6102306101a0565b905061023c82826101f6565b919050565b5f67ffffffffffffffff82111561025b5761025a6101c9565b5b610264826101b9565b9050602081019050919050565b8281835e5f83830152505050565b5f61029161028c84610241565b610227565b9050828152602081018484840111156102ad576102ac6101b5565b5b6102b8848285610271565b509392505050565b5f82601f8301126102d4576102d36101b1565b5b81516102e484826020860161027f565b91505092915050565b5f73ffffffffffffffffffffffffffffffffffffffff82169050919050565b5f610316826102ed565b9050919050565b6103268161030c565b8114610330575f80fd5b50565b5f815190506103418161031d565b92915050565b5f806040838503121561035d5761035c6101a9565b5b5f83015167ffffffffffffffff81111561037a576103796101ad565b5b610386858286016102c0565b925050602061039785828601610333565b9150509250929050565b6103aa8161030c565b82525050565b5f6020820190506103c35f8301846103a1565b92915050565b5f81519050919050565b7f4e487b71000000000000000000000000000000000000000000000000000000005f52602260045260245ffd5b5f600282049050600182168061041757607f821691505b60208210810361042a576104296103d3565b5b50919050565b5f819050815f5260205f209050919050565b5f6020601f8301049050919050565b5f82821b905092915050565b5f6008830261048c7fffffffffffffffffffffffffffffffffffffffffffffffffffffffffffffffff82610451565b6104968683610451565b95508019841693508086168417925050509392505050565b5f819050919050565b5f819050919050565b5f6104da6104d56104d0846104ae565b6104b7565b6104ae565b9050919050565b5f819050919050565b6104f3836104c0565b6105076104ff826104e1565b84845461045d565b825550505050565b5f90565b61051b61050f565b6105268184846104ea565b505050565b5b818110156105495761053e5f82610513565b60018101905061052c565b5050565b601f82111561058e5761055f81610430565b61056884610442565b81016020851015610577578190505b61058b61058385610442565b83018261052b565b50505b505050565b5f82821c905092915050565b5f6105ae5f1984600802610593565b1980831691505092915050565b5f6105c6838361059f565b9150826002028217905092915050565b6105df826103c9565b67ffffffffffffffff8111156105f8576105f76101c9565b5b6106028254610400565b61060d82828561054d565b5f60209050601f83116001811461063e575f841561062c578287015190505b61063685826105bb565b86555061069d565b601f19841661064c86610430565b5f5b828110156106735784890151825560018201915060208501945060208101905061064e565b86831015610690578489015161068c601f89168261059f565b8355505b6001600288020188555050505b505050505050565b6126d5806106b25f395ff3fe608060405234801561000f575f80fd5b50600436106100f2575f3560e01c80634e1273f411610095578063a22cb46511610064578063a22cb46514610294578063e985e9c5146102b0578063f242432a146102e0578063f2fde38b146102fc576100f2565b80634e1273f41461021e578063715018a61461024e57806375794a3c146102585780638da5cb5b14610276576100f2565b80630e89341c116100d15780630e89341c146101725780630ecaea73146101a25780632eb2c2d6146101d257806340c1a064146101ee576100f2565b8062fdd58e146100f657806301ffc9a71461012657806302fe530514610156575b5f80fd5b610110600480360381019061010b91906117e0565b610318565b60405161011d919061182d565b60405180910390f35b610140600480360381019061013b919061189b565b61036d565b60405161014d91906118e0565b60405180910390f35b610170600480360381019061016b9190611a35565b61044e565b005b61018c60048036038101906101879190611a7c565b610462565b6040516101999190611b07565b60405180910390f35b6101bc60048036038101906101b791906117e0565b610474565b6040516101c9919061182d565b60405180910390f35b6101ec60048036038101906101e79190611c89565b61050d565b005b61020860048036038101906102039190611a7c565b6105b4565b6040516102159190611d63565b60405180910390f35b61023860048036038101906102339190611e3c565b6105e4565b6040516102459190611f69565b60405180910390f35b6102566106eb565b005b6102606106fe565b60405161026d919061182d565b60405180910390f35b61027e610704565b60405161028b9190611d63565b60405180910390f35b6102ae60048036038101906102a99190611fb3565b61072c565b005b6102ca60048036038101906102c59190611ff1565b610742565b6040516102d791906118e0565b60405180910390f35b6102fa60048036038101906102f5919061202f565b6107d0565b005b610316600480360381019061031191906120c2565b610877565b005b5f805f8381526020019081526020015f205f8473ffffffffffffffffffffffffffffffffffffffff1673ffffffffffffffffffffffffffffffffffffffff1681526020019081526020015f2054905092915050565b5f7fd9b67a26000000000000000000000000000000000000000000000000000000007bffffffffffffffffffffffffffffffffffffffffffffffffffffffff1916827bffffffffffffffffffffffffffffffffffffffffffffffffffffffff1916148061043757507f0e89341c000000000000000000000000000000000000000000000000000000007bffffffffffffffffffffffffffffffffffffffffffffffffffffffff1916827bffffffffffffffffffffffffffffffffffffffffffffffffffffffff1916145b806104475750610446826108fb565b5b9050919050565b610456610964565b61045f816109eb565b50565b606061046d826109fe565b9050919050565b5f61047d610964565b5f600454905060045f8154809291906104959061211a565b91905055508360055f8381526020019081526020015f205f6101000a81548173ffffffffffffffffffffffffffffffffffffffff021916908373ffffffffffffffffffffffffffffffffffffffff16021790555061050384828560405180602001604052805f815250610a90565b8091505092915050565b5f610516610b25565b90508073ffffffffffffffffffffffffffffffffffffffff168673ffffffffffffffffffffffffffffffffffffffff161415801561055b57506105598682610742565b155b1561059f5780866040517fe237d922000000000000000000000000000000000000000000000000000000008152600401610596929190612161565b60405180910390fd5b6105ac8686868686610b2c565b505050505050565b6005602052805f5260405f205f915054906101000a900473ffffffffffffffffffffffffffffffffffffffff1681565b6060815183511461063057815183516040517f5b059991000000000000000000000000000000000000000000000000000000008152600401610627929190612188565b60405180910390fd5b5f835167ffffffffffffffff81111561064c5761064b611911565b5b60405190808252806020026020018201604052801561067a5781602001602082028036833780820191505090505b5090505f5b84518110156106e0576106b661069e8287610c2090919063ffffffff16565b6106b18387610c3390919063ffffffff16565b610318565b8282815181106106c9576106c86121af565b5b60200260200101818152505080600101905061067f565b508091505092915050565b6106f3610964565b6106fc5f610c46565b565b60045481565b5f60035f9054906101000a900473ffffffffffffffffffffffffffffffffffffffff16905090565b61073e610737610b25565b8383610d09565b5050565b5f60015f8473ffffffffffffffffffffffffffffffffffffffff1673ffffffffffffffffffffffffffffffffffffffff1681526020019081526020015f205f8373ffffffffffffffffffffffffffffffffffffffff1673ffffffffffffffffffffffffffffffffffffffff1681526020019081526020015f205f9054906101000a900460ff16905092915050565b5f6107d9610b25565b90508073ffffffffffffffffffffffffffffffffffffffff168673ffffffffffffffffffffffffffffffffffffffff161415801561081e575061081c8682610742565b155b156108625780866040517fe237d922000000000000000000000000000000000000000000000000000000008152600401610859929190612161565b60405180910390fd5b61086f8686868686610e72565b505050505050565b61087f610964565b5f73ffffffffffffffffffffffffffffffffffffffff168173ffffffffffffffffffffffffffffffffffffffff16036108ef575f6040517f1e4fbdf70000000000000000000000000000000000000000000000000000000081526004016108e69190611d63565b60405180910390fd5b6108f881610c46565b50565b5f7f01ffc9a7000000000000000000000000000000000000000000000000000000007bffffffffffffffffffffffffffffffffffffffffffffffffffffffff1916827bffffffffffffffffffffffffffffffffffffffffffffffffffffffff1916149050919050565b61096c610b25565b73ffffffffffffffffffffffffffffffffffffffff1661098a610704565b73ffffffffffffffffffffffffffffffffffffffff16146109e9576109ad610b25565b6040517f118cdaa70000000000000000000000000000000000000000000000000000000081526004016109e09190611d63565b60405180910390fd5b565b80600290816109fa91906123d6565b5050565b606060028054610a0d90612209565b80601f0160208091040260200160405190810160405280929190818152602001828054610a3990612209565b8015610a845780601f10610a5b57610100808354040283529160200191610a84565b820191905f5260205f20905b815481529060010190602001808311610a6757829003601f168201915b50505050509050919050565b5f73ffffffffffffffffffffffffffffffffffffffff168473ffffffffffffffffffffffffffffffffffffffff1603610b00575f6040517f57f447ce000000000000000000000000000000000000000000000000000000008152600401610af79190611d63565b60405180910390fd5b5f80610b0c8585610f78565b91509150610b1d5f87848487610fa8565b505050505050565b5f33905090565b5f73ffffffffffffffffffffffffffffffffffffffff168473ffffffffffffffffffffffffffffffffffffffff1603610b9c575f6040517f57f447ce000000000000000000000000000000000000000000000000000000008152600401610b939190611d63565b60405180910390fd5b5f73ffffffffffffffffffffffffffffffffffffffff168573ffffffffffffffffffffffffffffffffffffffff1603610c0c575f6040517f01a83514000000000000000000000000000000000000000000000000000000008152600401610c039190611d63565b60405180910390fd5b610c198585858585610fa8565b5050505050565b5f60208202602084010151905092915050565b5f60208202602084010151905092915050565b5f60035f9054906101000a900473ffffffffffffffffffffffffffffffffffffffff1690508160035f6101000a81548173ffffffffffffffffffffffffffffffffffffffff021916908373ffffffffffffffffffffffffffffffffffffffff1602179055508173ffffffffffffffffffffffffffffffffffffffff168173ffffffffffffffffffffffffffffffffffffffff167f8be0079c531659141344cd1fd0a4f28419497f9722a3daafe3b4186f6b6457e060405160405180910390a35050565b5f73ffffffffffffffffffffffffffffffffffffffff168273ffffffffffffffffffffffffffffffffffffffff1603610d79575f6040517fced3e100000000000000000000000000000000000000000000000000000000008152600401610d709190611d63565b60405180910390fd5b8060015f8573ffffffffffffffffffffffffffffffffffffffff1673ffffffffffffffffffffffffffffffffffffffff1681526020019081526020015f205f8473ffffffffffffffffffffffffffffffffffffffff1673ffffffffffffffffffffffffffffffffffffffff1681526020019081526020015f205f6101000a81548160ff0219169083151502179055508173ffffffffffffffffffffffffffffffffffffffff168373ffffffffffffffffffffffffffffffffffffffff167f17307eab39ab6107e8899845ad3d59bd9653f200f220920489ca2b5937696c3183604051610e6591906118e0565b60405180910390a3505050565b5f73ffffffffffffffffffffffffffffffffffffffff168473ffffffffffffffffffffffffffffffffffffffff1603610ee2575f6040517f57f447ce000000000000000000000000000000000000000000000000000000008152600401610ed99190611d63565b60405180910390fd5b5f73ffffffffffffffffffffffffffffffffffffffff168573ffffffffffffffffffffffffffffffffffffffff1603610f52575f6040517f01a83514000000000000000000000000000000000000000000000000000000008152600401610f499190611d63565b60405180910390fd5b5f80610f5e8585610f78565b91509150610f6f8787848487610fa8565b50505050505050565b60608060405191506001825283602083015260408201905060018152826020820152604081016040529250929050565b610fb485858585611054565b5f73ffffffffffffffffffffffffffffffffffffffff168473ffffffffffffffffffffffffffffffffffffffff161461104d575f610ff0610b25565b9050600184510361103c575f61100f5f86610c3390919063ffffffff16565b90505f6110255f86610c3390919063ffffffff16565b90506110358389898585896113e4565b505061104b565b61104a818787878787611593565b5b505b5050505050565b805182511461109e57815181516040517f5b059991000000000000000000000000000000000000000000000000000000008152600401611095929190612188565b60405180910390fd5b5f6110a7610b25565b90505f5b83518110156112a3575f6110c88286610c3390919063ffffffff16565b90505f6110de8386610c3390919063ffffffff16565b90505f73ffffffffffffffffffffffffffffffffffffffff168873ffffffffffffffffffffffffffffffffffffffff1614611201575f805f8481526020019081526020015f205f8a73ffffffffffffffffffffffffffffffffffffffff1673ffffffffffffffffffffffffffffffffffffffff1681526020019081526020015f20549050818110156111ad57888183856040517f03dee4c50000000000000000000000000000000000000000000000000000000081526004016111a494939291906124a5565b60405180910390fd5b8181035f808581526020019081526020015f205f8b73ffffffffffffffffffffffffffffffffffffffff1673ffffffffffffffffffffffffffffffffffffffff1681526020019081526020015f2081905550505b5f73ffffffffffffffffffffffffffffffffffffffff168773ffffffffffffffffffffffffffffffffffffffff161461129657805f808481526020019081526020015f205f8973ffffffffffffffffffffffffffffffffffffffff1673ffffffffffffffffffffffffffffffffffffffff1681526020019081526020015f205f82825461128e91906124e8565b925050819055505b50508060010190506110ab565b50600183510361135e575f6112c15f85610c3390919063ffffffff16565b90505f6112d75f85610c3390919063ffffffff16565b90508573ffffffffffffffffffffffffffffffffffffffff168773ffffffffffffffffffffffffffffffffffffffff168473ffffffffffffffffffffffffffffffffffffffff167fc3d58168c5ae7397731d063d5bbf3d657854427343f4c083240f7aacaa2d0f62858560405161134f929190612188565b60405180910390a450506113dd565b8373ffffffffffffffffffffffffffffffffffffffff168573ffffffffffffffffffffffffffffffffffffffff168273ffffffffffffffffffffffffffffffffffffffff167f4a39dc06d4c0dbc64b70af90fd698a233a518aa5d07e595d983b8c0526c8f7fb86866040516113d492919061251b565b60405180910390a45b5050505050565b5f8473ffffffffffffffffffffffffffffffffffffffff163b111561158b578373ffffffffffffffffffffffffffffffffffffffff1663f23a6e6187878686866040518663ffffffff1660e01b81526004016114449594939291906125a2565b6020604051808303815f875af192505050801561147f57506040513d601f19601f8201168201806040525081019061147c919061260e565b60015b611500573d805f81146114ad576040519150601f19603f3d011682016040523d82523d5f602084013e6114b2565b606091505b505f8151036114f857846040517f57f447ce0000000000000000000000000000000000000000000000000000000081526004016114ef9190611d63565b60405180910390fd5b805181602001fd5b63f23a6e6160e01b7bffffffffffffffffffffffffffffffffffffffffffffffffffffffff1916817bffffffffffffffffffffffffffffffffffffffffffffffffffffffff19161461158957846040517f57f447ce0000000000000000000000000000000000000000000000000000000081526004016115809190611d63565b60405180910390fd5b505b505050505050565b5f8473ffffffffffffffffffffffffffffffffffffffff163b111561173a578373ffffffffffffffffffffffffffffffffffffffff1663bc197c8187878686866040518663ffffffff1660e01b81526004016115f3959493929190612639565b6020604051808303815f875af192505050801561162e57506040513d601f19601f8201168201806040525081019061162b919061260e565b60015b6116af573d805f811461165c576040519150601f19603f3d011682016040523d82523d5f602084013e611661565b606091505b505f8151036116a757846040517f57f447ce00000000000000000000000000000000000000000000000000000000815260040161169e9190611d63565b60405180910390fd5b805181602001fd5b63bc197c8160e01b7bffffffffffffffffffffffffffffffffffffffffffffffffffffffff1916817bffffffffffffffffffffffffffffffffffffffffffffffffffffffff19161461173857846040517f57f447ce00000000000000000000000000000000000000000000000000000000815260040161172f9190611d63565b60405180910390fd5b505b505050505050565b5f604051905090565b5f80fd5b5f80fd5b5f73ffffffffffffffffffffffffffffffffffffffff82169050919050565b5f61177c82611753565b9050919050565b61178c81611772565b8114611796575f80fd5b50565b5f813590506117a781611783565b92915050565b5f819050919050565b6117bf816117ad565b81146117c9575f80fd5b50565b5f813590506117da816117b6565b92915050565b5f80604083850312156117f6576117f561174b565b5b5f61180385828601611799565b9250506020611814858286016117cc565b9150509250929050565b611827816117ad565b82525050565b5f6020820190506118405f83018461181e565b92915050565b5f7fffffffff0000000000000000000000000000000000000000000000000000000082169050919050565b61187a81611846565b8114611884575f80fd5b50565b5f8135905061189581611871565b92915050565b5f602082840312156118b0576118af61174b565b5b5f6118bd84828501611887565b91505092915050565b5f8115159050919050565b6118da816118c6565b82525050565b5f6020820190506118f35f8301846118d1565b92915050565b5f80fd5b5f80fd5b5f601f19601f8301169050919050565b7f4e487b71000000000000000000000000000000000000000000000000000000005f52604160045260245ffd5b61194782611901565b810181811067ffffffffffffffff8211171561196657611965611911565b5b80604052505050565b5f611978611742565b9050611984828261193e565b919050565b5f67ffffffffffffffff8211156119a3576119a2611911565b5b6119ac82611901565b9050602081019050919050565b828183375f83830152505050565b5f6119d96119d484611989565b61196f565b9050828152602081018484840111156119f5576119f46118fd565b5b611a008482856119b9565b509392505050565b5f82601f830112611a1c57611a1b6118f9565b5b8135611a2c8482602086016119c7565b91505092915050565b5f60208284031215611a4a57611a4961174b565b5b5f82013567ffffffffffffffff811115611a6757611a6661174f565b5b611a7384828501611a08565b91505092915050565b5f60208284031215611a9157611a9061174b565b5b5f611a9e848285016117cc565b91505092915050565b5f81519050919050565b5f82825260208201905092915050565b8281835e5f83830152505050565b5f611ad982611aa7565b611ae38185611ab1565b9350611af3818560208601611ac1565b611afc81611901565b840191505092915050565b5f6020820190508181035f830152611b1f8184611acf565b905092915050565b5f67ffffffffffffffff821115611b4157611b40611911565b5b602082029050602081019050919050565b5f80fd5b5f611b68611b6384611b27565b61196f565b90508083825260208201905060208402830185811115611b8b57611b8a611b52565b5b835b81811015611bb45780611ba088826117cc565b845260208401935050602081019050611b8d565b5050509392505050565b5f82601f830112611bd257611bd16118f9565b5b8135611be2848260208601611b56565b91505092915050565b5f67ffffffffffffffff821115611c0557611c04611911565b5b611c0e82611901565b9050602081019050919050565b5f611c2d611c2884611beb565b61196f565b905082815260208101848484011115611c4957611c486118fd565b5b611c548482856119b9565b509392505050565b5f82601f830112611c7057611c6f6118f9565b5b8135611c80848260208601611c1b565b91505092915050565b5f805f805f60a08688031215611ca257611ca161174b565b5b5f611caf88828901611799565b9550506020611cc088828901611799565b945050604086013567ffffffffffffffff811115611ce157611ce061174f565b5b611ced88828901611bbe565b935050606086013567ffffffffffffffff811115611d0e57611d0d61174f565b5b611d1a88828901611bbe565b925050608086013567ffffffffffffffff811115611d3b57611d3a61174f565b5b611d4788828901611c5c565b9150509295509295909350565b611d5d81611772565b82525050565b5f602082019050611d765f830184611d54565b92915050565b5f67ffffffffffffffff821115611d9657611d95611911565b5b602082029050602081019050919050565b5f611db9611db484611d7c565b61196f565b90508083825260208201905060208402830185811115611ddc57611ddb611b52565b5b835b81811015611e055780611df18882611799565b845260208401935050602081019050611dde565b5050509392505050565b5f82601f830112611e2357611e226118f9565b5b8135611e33848260208601611da7565b91505092915050565b5f8060408385031215611e5257611e5161174b565b5b5f83013567ffffffffffffffff811115611e6f57611e6e61174f565b5b611e7b85828601611e0f565b925050602083013567ffffffffffffffff811115611e9c57611e9b61174f565b5b611ea885828601611bbe565b9150509250929050565b5f81519050919050565b5f82825260208201905092915050565b5f819050602082019050919050565b611ee4816117ad565b82525050565b5f611ef58383611edb565b60208301905092915050565b5f602082019050919050565b5f611f1782611eb2565b611f218185611ebc565b9350611f2c83611ecc565b805f5b83811015611f5c578151611f438882611eea565b9750611f4e83611f01565b925050600181019050611f2f565b5085935050505092915050565b5f6020820190508181035f830152611f818184611f0d565b905092915050565b611f92816118c6565b8114611f9c575f80fd5b50565b5f81359050611fad81611f89565b92915050565b5f8060408385031215611fc957611fc861174b565b5b5f611fd685828601611799565b9250506020611fe785828601611f9f565b9150509250929050565b5f80604083850312156120075761200661174b565b5b5f61201485828601611799565b925050602061202585828601611799565b9150509250929050565b5f805f805f60a086880312156120485761204761174b565b5b5f61205588828901611799565b955050602061206688828901611799565b9450506040612077888289016117cc565b9350506060612088888289016117cc565b925050608086013567ffffffffffffffff8111156120a9576120a861174f565b5b6120b588828901611c5c565b9150509295509295909350565b5f602082840312156120d7576120d661174b565b5b5f6120e484828501611799565b91505092915050565b7f4e487b71000000000000000000000000000000000000000000000000000000005f52601160045260245ffd5b5f612124826117ad565b91507fffffffffffffffffffffffffffffffffffffffffffffffffffffffffffffffff8203612156576121556120ed565b5b600182019050919050565b5f6040820190506121745f830185611d54565b6121816020830184611d54565b9392505050565b5f60408201905061219b5f83018561181e565b6121a8602083018461181e565b9392505050565b7f4e487b71000000000000000000000000000000000000000000000000000000005f52603260045260245ffd5b7f4e487b71000000000000000000000000000000000000000000000000000000005f52602260045260245ffd5b5f600282049050600182168061222057607f821691505b602082108103612233576122326121dc565b5b50919050565b5f819050815f5260205f209050919050565b5f6020601f8301049050919050565b5f82821b905092915050565b5f600883026122957fffffffffffffffffffffffffffffffffffffffffffffffffffffffffffffffff8261225a565b61229f868361225a565b95508019841693508086168417925050509392505050565b5f819050919050565b5f6122da6122d56122d0846117ad565b6122b7565b6117ad565b9050919050565b5f819050919050565b6122f3836122c0565b6123076122ff826122e1565b848454612266565b825550505050565b5f90565b61231b61230f565b6123268184846122ea565b505050565b5b818110156123495761233e5f82612313565b60018101905061232c565b5050565b601f82111561238e5761235f81612239565b6123688461224b565b81016020851015612377578190505b61238b6123838561224b565b83018261232b565b50505b505050565b5f82821c905092915050565b5f6123ae5f1984600802612393565b1980831691505092915050565b5f6123c6838361239f565b9150826002028217905092915050565b6123df82611aa7565b67ffffffffffffffff8111156123f8576123f7611911565b5b6124028254612209565b61240d82828561234d565b5f60209050601f83116001811461243e575f841561242c578287015190505b61243685826123bb565b86555061249d565b601f19841661244c86612239565b5f5b828110156124735784890151825560018201915060208501945060208101905061244e565b86831015612490578489015161248c601f89168261239f565b8355505b6001600288020188555050505b505050505050565b5f6080820190506124b85f830187611d54565b6124c5602083018661181e565b6124d2604083018561181e565b6124df606083018461181e565b95945050505050565b5f6124f2826117ad565b91506124fd836117ad565b9250828201905080821115612515576125146120ed565b5b92915050565b5f6040820190508181035f8301526125338185611f0d565b905081810360208301526125478184611f0d565b90509392505050565b5f81519050919050565b5f82825260208201905092915050565b5f61257482612550565b61257e818561255a565b935061258e818560208601611ac1565b61259781611901565b840191505092915050565b5f60a0820190506125b55f830188611d54565b6125c26020830187611d54565b6125cf604083018661181e565b6125dc606083018561181e565b81810360808301526125ee818461256a565b90509695505050505050565b5f8151905061260881611871565b92915050565b5f602082840312156126235761262261174b565b5b5f612630848285016125fa565b91505092915050565b5f60a08201905061264c5f830188611d54565b6126596020830187611d54565b818103604083015261266b8186611f0d565b9050818103606083015261267f8185611f0d565b90508181036080830152612693818461256a565b9050969550505050505056fea26469706673582212203fed8bffcc1d5a5a451ac06d2ddf9d3cb7b602c02f1cda3103a2663b9e3b9bd864736f6c634300081a0033","linkReferences":{}},"methodIdentifiers":{"balanceOf(address,uint256)":"00fdd58e","balanceOfBatch(address[],uint256[])":"4e1273f4","create(address,uint256)":"0ecaea73","isApprovedForAll(address,address)":"e985e9c5","nextTokenId()":"75794a3c","owner()":"8da5cb5b","renounceOwnership()":"715018a6","safeBatchTransferFrom(address,address,uint256[],uint256[],bytes)":"2eb2c2d6","safeTransferFrom(address,address,uint256,uint256,bytes)":"f242432a","setApprovalForAll(address,bool)":"a22cb465","setURI(string)":"02fe5305","supportsInterface(bytes4)":"01ffc9a7","tokenCreator(uint256)":"40c1a064","transferOwnership(address)":"f2fde38b","uri(uint256)":"0e89341c"},"id":39}